:100000000A128A11FC2FF401F501701C0D287208E8
:10001000F4070318F50A7308F50701300310F20D11
:10002000F30DFF3E031D0E2801300310F10CF00C00
:10003000FF3E031D152870087104031D052875086F
:10004000F1007408F0000800831203134708803998
:10005000C8004808CD004708C8004807C90049083B
:10006000D800C61B5814580803194428580A031D01
:1000700041280030C7000030C6000030C500003005
:10008000C400C617C7014C280030C7000030C600A6
:100090000030C5000030C40043088039C80048085B
:1000A000CD064308C8004807C9004908D900C21B4B
:1000B0005914590803196A28590A031D6728003082
:1000C000C3000030C2000030C1000030C000C217C1
:1000D000C30172280030C3000030C2000030C100EC
:1000E0000030C0004308420441044004031D8D2831
:1000F0000030C7000030C6000030C5000030C4002A
:100100008030C6047F30C7044708C3004608C200D9
:100110004508C1004408C00008005808031DA12874
:100120000030C7000030C6000030C5000030C400F9
:100130004708C3004608C2004508C1004408C00083
:1001400008005908C800C901C809C909C80A031923
:10015000C90A58084807CA0049080318490ACB00C9
:100160004A087F3ED2004B080318013E003ED300F0
:100170004708D1004608D0004508CF004408CE000B
:100180000030C7000030C6000030C5000030C40099
:100190000030D7000030D6000030D5000030D40049
:1001A000D9011A3059020318192959080319F528D9
:1001B0000130C8000310CE0DCF0DD00DD10DC80BEE
:1001C000DA280130C8000310C40DC50DC60DC70DD7
:1001D000C80BE328D71B44140130C8000310D40D0A
:1001E000D50DD60DD70DC80BEE2843085102031DBF
:1001F000032942085002031D032941084F02031D31
:10020000032940084E02031C142957174008CE0248
:100210004108031C410FCF024208031C420FD002C9
:100220004308031C430FD1020130C8004808D90716
:10023000D128510850044F044E04031D5414C61B0A
:100240003C290130C8000310C40DC50DC60DC70DF3
:10025000C80B2329D71B44140130C8000310D40D48
:10026000D50DD60DD70DC80B2E29FF30D207031898
:10027000D30AFF30D3071F29D901D71F5529FF30D3
:100280005405C800FF305505C900FF305605CA00A7
:100290007F305705CB004B084A0449044804031D2E
:1002A0005329441C5529D901D90A5908031987290A
:1002B0000130C407003003180130C50700300318AF
:1002C0000130C607003003180130C707471C8729D3
:1002D0004408C8004508C9004608CA004708CB00C2
:1002E0000130CC004B0DCB0CCA0CC90CC80CCC0B8C
:1002F00072294B08C7004A08C6004908C5004808CB
:10030000C4000130D2070318D30A0030D3075308C2
:10031000803AFF0080307F02031D9029FF30520297
:10032000031CA029FF3083120313D2000030D30036
:100330000030C7000030C6000030C5000030C400E7
:10034000831203135308803AFF0080307F02031D9D
:10035000AB29013052020318BA2983120313D201C8
:10036000D3010030C7000030C6000030C5000030A7
:10037000C400CD01831203135208C8004808D800F6
:10038000581CC429C617C8297F30C8004808C605AC
:100390005808C8000310480CC9004908C7004D0898
:1003A000C8004808C7044708C3004608C2004508FB
:1003B000C1004408C000080083160313D800B530FC
:1003C000BB003B08C7000130B407FF30340784008E
:1003D0000A168A1500200A128A11BB003B08DB00AE
:1003E0005B080319F72F25305B060319F9295B0811
:1003F000EC2FC801C901340884000A168A150020B0
:100400000A128A112E3A031D462A49170130BB00F1
:100410003B08B407D901DA01340884000A168A15AA
:1004200000200A128A110A168A15CD230A128A118F
:10043000031C902A831603135A08F1005908F00090
:100440000A30F2000030F3000A128A1103200A1267
:100450008A1183160313340884000A168A150020B3
:100460000A128A117007BB000030031801307107AF
:10047000BC003B08D03ED9003C080318013EFF3EBB
:10048000DA000130BB003B08B4070C2A83160313C3
:10049000D901DA014916902A4915A72A59085A04A0
:1004A00003195E2A46085A02031D582A45085902B4
:1004B00003185E2A5A08C6005908C5000130C50253
:1004C0000030031CC603C602450A0319460A031975
:1004D000E3294408840083130008BB005808840003
:1004E0003B08831780000130BB003B08C407013084
:1004F000BB003B08D8075E2A470884008313000826
:10050000BB003B08DB000230BB003B08C707DB3009
:10051000BB003B08C4000130C5000030C6004E2AB5
:10052000013083160313B407FF30340784000A1622
:100530008A1500200A128A11DB00003A0319F72FEE
:10054000633A03197C2A053A03194C2A872A00309A
:100550004805BB0007304905BC003B083C040319B3
:100560009D2F491EB72A0630D9000030DA0047080F
:10057000840083130008D400840A0008D500840A8C
:100580000008D600840A0008D7000430BB003B08EE
:10059000C7075708A7005608A6005508A500540825
:1005A000A4000030AB000030AA000030A9000030E9
:1005B000A8000A168A1551270A128A110318FD2A63
:1005C000831603135708F3005608F2005508F1008C
:1005D0005408F0000A168A15B8230A128A11730803
:1005E00083160313D7007208D6007108D50070086F
:1005F000D4000330C8040030C90483160313CE01AD
:10060000CF0157085604550454040319F62B540817
:10061000BB005508BC005608BD005708BE000310BB
:100620003D0D3E0D823ECE00FF3003180030CF005E
:10063000FF30CE070318CF0AFF30CF070330F0009A
:100640000030F1004F08F3004E08F2000A128A1140
:1006500003200A128A11710883160313CF00700851
:10066000CE000A30F7000030F8004F08FA004E08BC
:10067000F9000A168A156D250A128A117808831660
:100680000313CF007708CE00CF1F4C2BFF30CE07CF
:100690000318CF0AFF30CF074E03FF3A0A128A151C
:1006A000B1240A128A118312031343088316031319
:1006B000D30083120313420883160313D20083125C
:1006C0000313410883160313D10083120313400858
:1006D00083160313D000570883120313A90083164F
:1006E0000313560883120313A80083160313550837
:1006F00083120313A70083160313540883120313F2
:10070000A60083160313530883120313AD00831648
:100710000313520883120313AC008316031351080A
:1007200083120313AB0083160313500883120313C1
:10073000AA000A128A159C210A128A118312031335
:10074000290883160313D300831203132808831682
:100750000313D20083120313270883160313D10057
:1007600083120313260883160313D0005308A7002F
:100770005208A6005108A5005008A4003F30AB0065
:100780008030AA000030A9000030A8000A168A159F
:1007900051270A128A110318D52BFF308316031331
:1007A000CE070318CF0AFF30F52B83160313530827
:1007B000A7005208A6005108A5005008A400413027
:1007C000AB002030AA000030A9000030A8000A16B3
:1007D0008A1551270A128A11031CF62B0130831641
:1007E0000313CE070318CF0A0030CF078316031375
:1007F0005A08803AFF0080307F02031D012C0D3023
:10080000590203184A2C8316031359080A168A1131
:1008100029200A128A11831203134308DE004208BA
:10082000DD004108DC004008DB0083160313570895
:1008300083120313E2008316031356088312031373
:10084000E10083160313550883120313E000831697
:100850000313540883120313DF000A168A110725B5
:100860000A128A11831203135E0883160313D7003A
:10087000831203135D0883160313D6008312031338
:100880005C0883160313D500831203135B088316D9
:100890000313D400831603134F08803AFF008030FF
:1008A0007F02031D552C0A304E0203188F2C83162D
:1008B000031357085604550454040319F82C570819
:1008C00083120313D60083160313560883120313EF
:1008D000D50083160313550883120313D40083161F
:1008E0000313540883120313D3000A168A1526260D
:1008F0000A128A1183120313560855045404530430
:10090000031DF82C831603134F08803AFF00803034
:100910007F02031D8D2C02304E02031CF82C83161F
:1009200003135308A7005208A6005108A500500859
:10093000A4004030AB008930AA007030A9005F30BD
:10094000A8000A168A1551270A128A110318AA2C20
:10095000F730AB2CF83083160313CE070318CF0AF9
:10096000FF30CF074E080A128A15B1240A128A11E5
:1009700083120313430883160313D3008312031354
:10098000420883160313D20083120313410883160F
:100990000313D10083120313400883160313D000FE
:1009A0005708F3005608F2005508F1005408F0000B
:1009B0005308F7005208F6005108F5005008F400FB
:1009C0000A128A15C8200A128A11730883160313A3
:1009D000CD007208CC007108CB007008CA0000304E
:1009E000D7000030D6000030D5000030D4005E2D96
:1009F00083160313570883120313D60083160313B9
:100A0000560883120313D500831603135508831267
:100A10000313D40083160313540883120313D30063
:100A20000A168A1526260A128A11831203135608FB
:100A300083160313CD008312031355088316031383
:100A4000CC0083120313540883160313CB008312C4
:100A50000313530883160313CA004D08F8004C080B
:100A6000F7004B08F6004A08F50000300A168A1510
:100A7000AC260A128A11780883160313A700770898
:100A8000A6007608A5007508A4005708AB00560814
:100A9000AA005508A9005408A8000A168A151F259F
:100AA0000A128A11831603132708D7002608D600D6
:100AB0002508D5002408D400CE01CF01DB01DB0AD4
:100AC0000A305B060319A02D5B08BB000130031040
:100AD000BB0DFF3E031D672D03103B0D693E8400D7
:100AE0000A168A1500200A128A11BC000A168A15F5
:100AF00000200A128A11BD000A168A1500200A1267
:100B00008A11BE000A168A1500200A128A11BF0037
:100B10003F084D02031D962D3E084C02031D962DE5
:100B20003D084B02031D962D3C084A02031CA02DD4
:100B30000130BB003B08DB070A305B06031D642D58
:100B400003304805BB0000304905BC003B083C04AD
:100B50000319B52D2D30BB00580884003B088317BE
:100B600080000130BB003B08D807FF30BB003B08CA
:100B7000DB075B0A03192C2E5B08BB000130031056
:100B8000BB0DFF3E031DBF2D03103B0D693E8400CE
:100B90000A168A1500200A128A11F0000A168A1510
:100BA00000200A128A11F1000A168A1500200A1282
:100BB0008A11F2000A168A1500200A128A11F3001F
:100BC0004D08F7004C08F6004B08F5004A08F40001
:100BD0000A168A15C8250A128A1173088316031388
:100BE000D3007208D2007108D1007008D000003024
:100BF000F3000030F2000030F1000A30F00053083A
:100C0000F7005208F6005108F5005008F4000A16E3
:100C10008A15D3240A128A11730883160313D3008A
:100C20007208D2007108D1007008D0005008303E20
:100C3000AB2D303083160313BB00580884003B08EB
:100C4000831780000130BB003B08D807FF30CE0778
:100C50000318CF0AFF30CF074F08803AFF008030DB
:100C60007F02031D352E01304E020318192E831604
:100C700003135A08803AFF0080307F02031D422E82
:100C800009305902031C482E0830831603134B2EDB
:100C9000831603135908BB003B08DB005B08BB004D
:100CA000BC01BB1BBC033B08D9023C08031CDA0394
:100CB000DA025B080319672E2E30BB005808840047
:100CC0003B08831780000130BB003B08D8075B0856
:100CD0000A128A15B1240A128A11831203134308D7
:100CE00083160313C30083120313420883160313EE
:100CF000C20083120313410883160313C100831239
:100D00000313400883160313C00043088312031320
:100D1000AD0083160313420883120313AC0083163D
:100D20000313410883120313AB0083160313400817
:100D300083120313AA0083160313570883120313A5
:100D4000A90083160313560883120313A800831601
:100D50000313550883120313A700831603135408C3
:100D600083120313A6000A128A159C210A128A1103
:100D7000831203132908D6002808D5002708D400B9
:100D80002608D3000A168A1526260A128A1183120B
:100D90000313560883160313CD008312031355085B
:100DA00083160313CC008312031354088316031312
:100DB000CB0083120313530883160313CA00FF30BA
:100DC000BB003B08DB075B0A0319982F5B08BB00DD
:100DD00001300310BB0DFF3E031DE92E03103B0D38
:100DE000693E84000A168A1500200A128A11F00052
:100DF0000A168A1500200A128A11F1000A168A15AD
:100E000000200A128A11F2000A168A1500200A121E
:100E10008A11F3004D08F7004C08F6004B08F50066
:100E20004A08F4000A168A15C8250A128A1173089E
:100E300083160313D3007208D2007108D100700822
:100E4000D0000030F3000030F2000030F1000A3032
:100E5000F0005308F7005208F6005108F50050085A
:100E6000F4000A168A15D3240A128A11730883160D
:100E70000313D3007208D2007108D1007008D000AB
:100E80005008303EBB00580884003B0883178000A0
:100E90000130BB003B08D8075B08BB0001300310E2
:100EA000BB0DFF3E031D4F2F03103B0D693E840019
:100EB0000A168A1500200A128A11F0000A168A15ED
:100EC00000200A128A11F1000A168A1500200A125F
:100ED0008A11F2000A168A1500200A128A11F300FC
:100EE0004D08F7004C08F6004B08F5004A08F400DE
:100EF0000A168A15D3240A128A117308831603135B
:100F0000CD007208CC007108CB007008DE2E3030A6
:100F1000BB00580884003B08831780000130BB00E9
:100F20003B08D807FF30D9070318DA0AFF30DA0781
:100F300059085A040319E329872F59085A04031D35
:100F4000AD2F4D084C044B044A04031DAD2F013056
:100F5000D9070318DA0A0030DA075B08BB00BC01C6
:100F6000BB1BBC033C08803ABD005A08803A3D02D6
:100F7000031DBC2F59083B020318C52F831603130A
:100F80005908BB003B08DB00DF2F831603135B0807
:100F9000BB00BC01BB1BBC035A08803ABD003C0827
:100FA000803A3D02031DD62F3B0859020318DF2F5C
:100FB000831603135B08D900DA01D91BDA03033067
:100FC000831603134805BB0000304905BC003B08ED
:100FD0003C040319E3292D30BB00580884003B086A
:100FE000831780000130BB003B08D807E32958086D
:100FF000840083178001080083010A168A112D2AB4
:10100A007008F8007108F9007208FA000310790DE7
:10101A007A0DFB007B0883120313A5002508031D24
:10102A001F280030F3000030F2000030F1000030D9
:10103A00F00008007408F8007508F9007608FA004C
:10104A000310790D7A0DFB007B08A4002408031D08
:10105A0037280030F3000030F2000030F100003091
:10106A00F0000800F117FF30F005FF30F1050030FD
:10107A00F205F517FF30F405FF30F5050030F605E7
:10108A000030A3000030A2000030A1000030A00010
:10109A007F30A50298302407F8007808A502183096
:1010AA00F8007808A4000130F8000310A00DA10D83
:1010BA00A20DA30DF80B5A2876087202031D6B289D
:1010CA0075087102031D6B2874087002031C7828C6
:1010DA007408F0027508031C750FF1027608031CE8
:1010EA00760AF202201401300310F00DF10DF20D10
:1010FA00FF3E031D79280130A402031D5828A51FAD
:10110A00A4282508803A973E031894280030F30053
:10111A000030F2000030F1000030F0000800013029
:10112A000310A30CA20CA10CA00CFF3E031D9528D2
:10113A000130F8007808A5070319BF289428183049
:10114A002502031CBC280030F3000030F2000030F6
:10115A00F1000030F00008000130F8000310A00D83
:10116A00A10DA20DA30DF80BB3280130A502250885
:10117A00031DB1282308F3002208F2002108F10018
:10118A002008F00008007008F8007108F9007208D9
:10119A00FA007308FB0003107A0D7B0DFC007C0833
:1011AA0083120313A5002508031DE4280030F30069
:1011BA000030F2000030F1000030F000080074083E
:1011CA00F8007508F9007608FA007708FB000310A2
:1011DA007A0D7B0DFC007C08A4002408031DFE2860
:1011EA000030F3000030F2000030F1000030F0006F
:1011FA000800F217FF30F005FF30F105FF30F20565
:10120A000030F305F617FF30F405FF30F505FF301F
:10121A00F6050030F7050030A3000030A2000030C8
:10122A00A1000030A0007F30A502A0302407F800FA
:10123A007808A5022030F8007808A4000130F800E8
:10124A000310A00DA10DA20DA30DF80B25297708F7
:10125A007302031D3A2976087202031D3A2975089A
:10126A007102031D3A2974087002031C4B29740881
:10127A00F0027508031C750FF1027608031C760F3D
:10128A00F2027708031C770FF30220140130F800EA
:10129A000310F00DF10DF20DF30DF80B4D2901308D
:1012AA00A402031D2329A51F78292508803A9F3EF9
:1012BA00031868290030F3000030F2000030F10012
:1012CA000030F000080001300310A30CA20CA10C9E
:1012DA00A00CFF3E031D69290130F8007808A50714
:1012EA0003199329682920302502031C902900300C
:1012FA00F3000030F2000030F1000030F000080086
:10130A000130F8000310A00DA10DA20DA30DF80BDA
:10131A0087290130A5022508031D85292308F30022
:10132A002208F2002108F1002008F00008008312C8
:10133A00031329088039AE002E08B3002908AE002D
:10134A002E07AF002F08B900A81B39143908031952
:10135A00BB29390A031DB9290030A9000030A800A9
:10136A000030A7000030A600A817C3290030A90042
:10137A000030A8000030A7000030A6002D088039F0
:10138A00AE002E08B3062D08AE002E07AF002F08B8
:10139A00B800AC1B381438080319E029380A031DB1
:1013AA00DE290030AD000030AC000030AB00003068
:1013BA00AA00AC17E8290030AD000030AC000030BC
:1013CA00AB000030AA003808031D3908031DF629AE
:1013DA000030A9000030A8000030A7000030A600A5
:1013EA0008002608AE002E08F0002C080A168A15F6
:1013FA000A240A128A15710883120313BF0070089F
:10140A00BE003E08AE00AF01B001B1013108B7001D
:10141A003008B6002F08B5002E08B4003F08AE0009
:10142A00AF01B001B1013108BD003008BC002F087E
:10143A00BB002E08BA002708AE002E08F0002B08C1
:10144A000A168A150A240A128A15710883120313C6
:10145A00BF007008BE003E08AE00AF01B001B10186
:10146A002E08B4072F0803110318013E031DB50700
:10147A00300803110318013E031DB6073108031192
:10148A000318013E031DB7073F08AE00AF01B001C4
:10149A00B1012E08BA072F0803110318013E031DD4
:1014AA00BB07300803110318013E031DBC073108AE
:1014BA0003110318013E031DBD072808AE002E08BC
:1014CA00F0002A080A168A150A240A128A157108CF
:1014DA0083120313BF007008BE003E08AE00AF01BE
:1014EA00B001B1012E08B4072F0803110318013EF9
:1014FA00031DB507300803110318013E031DB60783
:10150A00310803110318013E031DB7073F08AE0057
:10151A00AF01B001B1012E08BA072F080311031851
:10152A00013E031DBB07300803110318013E031DCA
:10153A00BC07310803110318013E031DBD0708301B
:10154A00AE000310B40DB50DB60DB70DAE0BA62A3D
:10155A002708AE002E08F0002A080A168A150A245F
:10156A000A128A15710883120313BF007008BE009D
:10157A003E08AE003F08AF00B001B1012E08B40723
:10158A002F0803110318013E031DB5073008031184
:10159A000318013E031DB607310803110318013E63
:1015AA00031DB7072608AE002E08F0002B080A16FE
:1015BA008A150A240A128A15710883120313BF00B6
:1015CA007008BE003E08AE003F08AF00B001B1018E
:1015DA002E08B4072F0803110318013E031DB5078F
:1015EA00300803110318013E031DB6073108031121
:1015FA000318013E031DB7070830AE000310B40DEF
:10160A00B50DB60DB70DAE0B032B2608AE002E088E
:10161A00F0002A080A168A150A240A128A1571087D
:10162A0083120313BF007008BE003E08AE003F08D5
:10163A00AF00B001B1012E08B4072F080311031837
:10164A00013E031DB507300803110318013E031DAF
:10165A00B607310803110318013E031DB70727080F
:10166A00AE002E08F0002C080A168A150A240A125F
:10167A008A15710883120313BF007008BE003E0862
:10168A00AE003F08AF00B001B1012E08BA072F081B
:10169A0003110318013E031DBB0730080311031889
:1016AA00013E031DBC07310803110318013E031D47
:1016BA00BD072808AE002E08F0002B080A168A1566
:1016CA000A240A128A15710883120313BF007008CC
:1016DA00BE003E08AE003F08AF00B001B1012E08BF
:1016EA00BA072F0803110318013E031DBB07300870
:1016FA0003110318013E031DBC0731080311031827
:10170A00013E031DBD072808AE002E08F0002C0874
:10171A000A168A150A240A128A15710883120313F3
:10172A00BF007008BE003E08AE003F08AF00B0011F
:10173A00B10108300310AE0DAF0DB00DB10DFF3E73
:10174A00031D9F2B2E08BA072F0803110318013E09
:10175A00031DBB07300803110318013E031DBC0714
:10176A00310803110318013E031DBD073408AE00FA
:10177A003508AF003608B0003708B100183003103A
:10178A00B10CB00CAF0CAE0CFF3E031DC42B2E08DF
:10179A00BA072F0803110318013E031DBB073008BF
:1017AA0003110318013E031DBC0731080311031876
:1017BA00013E031DBD070830AE000310B40DB50D80
:1017CA00B60DB70DAE0BE22B39083807AE00AF01E4
:1017DA00AF0D2E08823EBE002F080318013EFF3EC1
:1017EA00BF00BC1B132C0130AE000310BA0DBB0D99
:1017FA00BC0DBD0DAE0BFA2BB71B3A140130AE006F
:10180A000310B40DB50DB60DB70DAE0B052CFF3098
:10181A00BE070318BF0AFF30BF07F62BB801B71F70
:10182A002C2CFF303405AE00FF303505AF00FF30F9
:10183A003605B0007F303705B100310830042F0477
:10184A002E04031D2A2C3A1C2C2CB801B80A38087D
:10185A0003195E2C0130BA07003003180130BB07A8
:10186A00003003180130BC07003003180130BD07EF
:10187A003D1C5E2C3A08AE003B08AF003C08B000A5
:10188A003D08B1000130B200310DB10CB00CAF0C03
:10189A00AE0CB20B492C3108BD003008BC002F0831
:1018AA00BB002E08BA000130BE070318BF0A003079
:1018BA00BF073F08803AFF0080307F02031D672C74
:1018CA00FF303E02031C742C7F3083120313BD00C9
:1018DA008030BC000030BB000030BA00A42C831258
:1018EA0003133F08803AFF0080307F02031D7F2CDC
:1018FA0001303E0203188D2C003083120313BD0001
:10190A000030BC000030BB000030BA00B301A42C88
:10191A00831203133E08AE002E08B900FF30BA0541
:10192A00FF30BB057F30BC050030BD053918BC1738
:10193A003908AE0003102E0CAF002F08BD00330883
:10194A00AE002E08BD043D08A9003C08A8003B08CB
:10195A00A7003A08A600080083120313D200D21F78
:10196A005C2ED209D20A5208803A123E031CA52DD7
:10197A000A30F7000030F8005208F200F301F21BB7
:10198A00F3036430F0000030F1000A168A15882447
:10199A000A128A157108FA007008F9000A168A15DF
:1019AA006D250A128A15770883120313C4000130C1
:1019BA000310C40DFF3E031DDD2C0310440D243E0D
:1019CA00353E84000A168A1500200A128A15C500B7
:1019DA000A168A1500200A128A15C6000A168A15DE
:1019EA0000200A128A15C7000A168A1500200A1250
:1019FA008A15C8004808A9004708A8004608A70091
:101A0A004508A6006430F7000030F8005208F900D3
:101A1A00FA01F91BFA030A168A156D250A128A15A4
:101A2A00770883120313C90001300310C90DFF3E62
:101A3A00031D1A2D0310490D483E353E84000A162F
:101A4A008A1500200A128A15CA000A168A15002069
:101A5A000A128A15CB000A168A1500200A128A155C
:101A6A00CC000A168A1500200A128A15CD004D08E4
:101A7A00AD004C08AC004B08AB004A08AA000A1299
:101A8A008A159C210A128A15831203132908D10088
:101A9A002808D0002708CF002608CE000A30F00018
:101AAA000030F1005208F200F301F21BF3030A16A8
:101ABA008A1588240A128A15700883120313C4002F
:101ACA0001300310C40DFF3E031D662D0310440DA3
:101ADA00353E84000A168A1500200A128A15C500A6
:101AEA000A168A1500200A128A15C6000A168A15CD
:101AFA0000200A128A15C7000A168A1500200A123F
:101B0A008A15C8004808A9004708A8004608A7007F
:101B1A004508A6005108AD005008AC004F08AB00BC
:101B2A004E08AA000A128A159C2183120313290857
:101B3A00C3002808C2002708C1002608C000080000
:101B4A005208803A753E031C312E0A30F0000030EC
:101B5A00F1005208F200F301F21BF3030A168A1588
:101B6A0088240A128A15700883120313C4000130EC
:101B7A000310C40DFF3E031DBD2D0310440D353E59
:101B8A0084000A168A1500200A128A15C5000A1648
:101B9A008A1500200A128A15C6000A168A1500201C
:101BAA000A128A15C7000A168A1500200A128A150F
:101BBA00C8004808A9004708A8004608A700450821
:101BCA00A6000A30F7000030F8005208F900FA01BE
:101BDA00F91BFA030A168A156D250A128A1577085F
:101BEA0083120313C90001300310C90DFF3E031D00
:101BFA00F92D0310490D243E353E84000A168A1534
:101C0A0000200A128A15CA000A168A1500200A122A
:101C1A008A15CB000A168A1500200A128A15CC00EA
:101C2A000A168A1500200A128A15CD004D08AD0041
:101C3A004C08AC004B08AB004A08AA000A128A15E5
:101C4A009C21831203132908C3002808C20027080D
:101C5A00C1002608C00008005208C4000130031061
:101C6A00C40DFF3E031D342E0310440D353E84007F
:101C7A000A168A1500200A128A15C5000A168A153C
:101C8A0000200A128A15C6000A168A1500200A12AE
:101C9A008A15C7000A168A150020C8004808C3001A
:101CAA004708C2004608C1004508C000080052089B
:101CBA00803A123E031C492F0A30F7000030F80020
:101CCA005208F200F301F21BF3036430F000003013
:101CDA00F1000A168A1588240A128A157108FA0070
:101CEA007008F9000A168A156D250A128A157708EE
:101CFA0083120313C40001300310C40DFF3E031DF9
:101D0A00812E0310440D243E013E84000A168A15D2
:101D1A0000200A128A15C5000A168A1500200A121E
:101D2A008A15C6000A168A1500200A128A15C700E3
:101D3A000A168A1500200A128A15C8004808A9003E
:101D4A004708A8004608A7004508A6006430F7001F
:101D5A000030F8005208F900FA01F91BFA030A16D2
:101D6A008A156D250A128A15770883120313C9008A
:101D7A0001300310C90DFF3E031DBE2E0310490D8D
:101D8A00483E013E84000A168A1500200A128A1566
:101D9A00CA000A168A1500200A128A15CB000A16EA
:101DAA008A1500200A128A15CC000A168A15002004
:101DBA000A128A15CD004D08AD004C08AC004B083C
:101DCA00AB004A08AA000A128A159C210A128A152F
:101DDA00831203132908D1002808D0002708CF004E
:101DEA002608CE000A30F0000030F1005208F20056
:101DFA00F301F21BF3030A168A1588240A128A15BC
:101E0A00700883120313C40001300310C40DFF3E8F
:101E1A00031D0A2F0310440D013E84000A168A1579
:101E2A0000200A128A15C5000A168A1500200A120D
:101E3A008A15C6000A168A1500200A128A15C700D2
:101E4A000A168A1500200A128A15C8004808A9002D
:101E5A004708A8004608A7004508A6005108AD0093
:101E6A005008AC004F08AB004E08AA000A128A15A7
:101E7A009C21831203132908C3002808C2002708DB
:101E8A00C1002608C00008005208803A753E031CAB
:101E9A00D52F0A30F0000030F1005208F200F301A9
:101EAA00F21BF3030A168A1588240A128A15700887
:101EBA0083120313C40001300310C40DFF3E031D37
:101ECA00612F0310440D013E84000A168A15002072
:101EDA000A128A15C5000A168A1500200A128A15DE
:101EEA00C6000A168A1500200A128A15C7000A16A1
:101EFA008A1500200A128A15C8004808A90047084E
:101F0A00A8004608A7004508A6000A30F7000030D6
:101F1A00F8005208F900FA01F91BFA030A168A15A1
:101F2A006D250A128A15770883120313C900013036
:101F3A000310C90DFF3E031D9D2F0310490D243EBA
:101F4A00013E84000A168A1500200A128A15CA0060
:101F5A000A168A1500200A128A15CB000A168A1553
:101F6A0000200A128A15CC000A168A1500200A12C5
:101F7A008A15CD004D08AD004C08AC004B08AB00EB
:101F8A004A08AA000A128A159C21831203132908F7
:101F9A00C3002808C2002708C1002608C00008009C
:101FAA005208C40001300310C40DFF3E031DD82F90
:101FBA000310440D013E84000A168A1500200A12F5
:101FCA008A15C5000A168A1500200A128A15C60043
:101FDA000A168A1500200A128A15C7000A168A15D7
:101FEA000020C8004808C3004708C2004608C100CC
:101FFA004508C0000800F400C530F20072088312D8
:10200A0003139F057408F20002300310F20DFF3E1D
:10201A00031D0A280310720DF30073089F0403308E
:10202A00F3009730F200F20B1828F30B18281D283A
:10203A00831203139F149F1820281E08F100831689
:10204A0003131E08F000080083120313DA006E302F
:10205A005A02031C3D290A30F7000030F8005A08DA
:10206A00C400C5014408F2004508F3006430F000DA
:10207A000030F1000A168A1588240A168A11710896
:10208A00FA007008F9000A168A156D250A168A11CF
:10209A00770883120313C60001300310C60DFF3EF2
:1020AA00031D52280310460D243E353E84000A16AD
:1020BA008A1500200A168A11C7000A168A150020F6
:1020CA000A168A11C8000A168A1500200A168A11E9
:1020DA00C9000A168A1500200A168A11CA004A0877
:1020EA00A9004908A8004808A7004708A6006430C4
:1020FA00F7000030F8005A08CB00CC014B08F90071
:10210A004C08FA000A168A156D250A168A117708EC
:10211A0083120313CD0001300310CD0DFF3E031DC2
:10212A00912803104D0D483E353E84000A168A1543
:10213A0000200A168A11CE000A168A1500200A16ED
:10214A008A11CF000A168A1500200A168A11D000B1
:10215A000A168A1500200A168A11D1005108AD0004
:10216A005008AC004F08AB004E08AA000A128A15A4
:10217A009C210A168A11831203132908D9002808F8
:10218A00D8002708D7002608D6000A30F000003009
:10219A00F1005A08C400C5014408F2004508F300DA
:1021AA000A168A1588240A168A11700883120313DC
:1021BA00C60001300310C60DFF3E031DDF280310C1
:1021CA00460D353E84000A168A1500200A168A1121
:1021DA00C7000A168A1500200A168A11C8000A16AC
:1021EA008A1500200A168A11C9000A168A150020C3
:1021FA000A168A11CA004A08A9004908A80048080C
:10220A00A7004708A6005908AD005808AC005708AF
:10221A00AB005608AA000A128A159C210A168A11CE
:10222A00831203132908D5002808D4002708D300ED
:10223A002608D2003F30A9000030A8000030A700CD
:10224A000030A6005508AD005408AC005308AB0096
:10225A005208AA000A128A159C218312031329081C
:10226A00C3002808C2002708C1002608C0000800C9
:10227A000B305A02031CEB290A30F0000030F1003F
:10228A005A08C400C5014408F2004508F3000A16BA
:10229A008A1588240A168A11700883120313C60045
:1022AA0001300310C60DFF3E031D56290310460DCB
:1022BA00353E84000A168A1500200A168A11C700BC
:1022CA000A168A1500200A168A11C8000A168A15E3
:1022DA0000200A168A11C9000A168A1500200A1651
:1022EA008A11CA004A08A9004908A8004808A70094
:1022FA004708A6000A30F7000030F8005A08CB0059
:10230A00CC014B08F9004C08FA000A168A156D250B
:10231A000A168A11770883120313CD0001300310BD
:10232A00CD0DFF3E031D942903104D0D243E353E6D
:10233A0084000A168A1500200A168A11CE000A1687
:10234A008A1500200A168A11CF000A168A1500205B
:10235A000A168A11D0000A168A1500200A168A114E
:10236A00D1005108AD005008AC004F08AB004E0830
:10237A00AA000A128A159C210A168A1183120313CB
:10238A002908D9002808D8002708D7002608D60027
:10239A003F30A9000030A8000030A7000030A60096
:1023AA005908AD005808AC005708AB005608AA00F7
:1023BA000A128A159C21831203132908C3002808CC
:1023CA00C2002708C1002608C00008003F30A90043
:1023DA000030A8000030A7000030A6005A08C40048
:1023EA0001300310C40DFF3E031DF6290310440DEE
:1023FA00353E84000A168A1500200A168A11C5007D
:10240A000A168A1500200A168A11C6000A168A15A3
:10241A0000200A168A11C7000A168A1500200A1611
:10242A008A11C8004808AD004708AC004608AB004E
:10243A004508AA000A128A159C2183120313290847
:10244A00C3002808C2002708C1002608C0000800E7
:10245A00413083160317A200A030A1000030A0006B
:10246A0000309F009A010130831603138500033060
:10247A008600F03087008801013083160317880030
:10248A0089018130831203139F00831603139F016E
:10249A008312031385018601870188010A168A15AA
:1024AA0051240A168A110D3083160313DD00FB30FE
:1024BA00DC00DC0B5E2ADD0B5E2A83300A168A15E5
:1024CA00C1230A168A11A83083160313DC005C089C
:1024DA00B40090300A128A11DC210A168A1190304F
:1024EA000A168A15EA230A168A11C0300A168A15AC
:1024FA00C1230A168A11913083160313DC005C0883
:10250A00B40083160317220883160313B800831630
:10251A000317210883160313B7008316031720082D
:10252A0083160313B600831603171F0883160313B3
:10253A00B500DF30B9000030BA0090300A128A11B3
:10254A00DC210A168A1190300A168A15EA230A161D
:10255A008A1183120313061C322B3F30DE0000302F
:10256A00DD000030DC000030DB0083160317220890
:10257A0083120313E200831603172108831203133D
:10258A00E10083160317200883120313E000831661
:10259A0003171F0883120313DF000A168A1107257F
:1025AA000A168A11831203135E0883160317A20000
:1025BA00831203135D0883160317A1008312031302
:1025CA005C0883160317A000831203135B088316A3
:1025DA0003179F00C0300A168A15C1230A168A11EA
:1025EA00913083160313DC005C08B40083160317CA
:1025FA00220883160313B8008316031721088316CB
:10260A000313B70083160317200883160313B600B3
:10261A00831603171F0883160313B500DF30B900AA
:10262A000030BA0090300A128A11DC210A168A1187
:10263A0090300A168A15EA230A168A11023083167E
:10264A000313DE000430DD00B930DC00DC0B2B2B79
:10265A00DD0B2B2BDE0B2B2B322B83120313861C49
:10266A00882B831603171A0803195A2B91300A1656
:10267A008A15C1230A168A11B53083160313DC00A2
:10268A005C08B40090300A128A11DC210A168A11F9
:10269A0090300A168A15EA230A168A118316031736
:1026AA009A01831203130611792B91300A168A159F
:1026BA00C1230A168A11B13083160313DC005C08A1
:1026CA00B40090300A128A11DC210A168A1190305D
:1026DA000A168A15EA230A168A11831603179A011B
:1026EA009A0A831203130615023083160313DE00B7
:1026FA000430DD00B930DC00DC0B812BDD0B812BD3
:10270A00DE0B812B882BD0300A168A15C1230A16B4
:10271A008A11003083120313061901300A168A152A
:10272A00AF230A168A11831603171A0803194E2CA7
:10273A00220883160313A70083160317210883169A
:10274A000313A60083160317200883160313A50094
:10275A00831603171F0883160313A400831603178F
:10276A001E0883160313AB00831603171D0883166E
:10277A000313AA00831603171C0883160313A90060
:10278A00831603171B0883160313A8000A168A1553
:10279A0051270A168A110318E12B83120313061113
:1027AA0090300A168A15C1230A168A112D300A1684
:1027BA008A15AF230A168A11831603171E08831671
:1027CA000313A700831603171D0883160313A60015
:1027DA00831603171C0883160313A5008316031711
:1027EA001B0883160313A400BF3083120313DE00F1
:1027FA000030DD000030DC000030DB0083160317F8
:10280A00220883120313E200831603172108831296
:10281A000313E10083160317200883120313E00051
:10282A00831603171F0883120313DF000A168A117F
:10283A0007250A168A11831203135E0883160313E7
:10284A00AB00831203135D0883160313AA008312D5
:10285A0003135C0883160313A900831203135B088E
:10286A0083160313A8000A168A1551270A168A1115
:10287A0003184E2C83120313061590300A168A1574
:10288A00C1230A168A112B300A168A15AF230A1693
:10289A008A11423083160313A7002030A6000030A5
:1028AA00A5000030A4008316031722088316031319
:1028BA00AB0083160317210883160313AA00831695
:1028CA000317200883160313A900831603171F088A
:1028DA0083160313A8000A168A1551270A168A11A5
:1028EA000318812C413083160317A200A030A100DF
:1028FA000030A00000309F00473083120313C3004A
:10290A007F30C200C030C1000030C0004230A90090
:10291A004830A8000030A7000030A60000300A1690
:10292A008A1100200A168A11700883160313DC0024
:10293A007108DD00DE01DF015F08F8005E08F700BC
:10294A005D08F6005C08F50000300A168A15AC2608
:10295A000A168A11780883120313AD007708AC00AF
:10296A007608AB007508AA000A128A159C210A1675
:10297A008A11831203132908C7002808C6002708EA
:10298A00C5002608C4000A128A1124200A168A11D0
:10299A00831203134308831603179E00831203133B
:1029AA004208831603179D008312031341088316F6
:1029BA0003179C00831203134008831603179B0016
:1029CA00CB300A168A15C1230A168A119D3083163E
:1029DA000313DC005C08B400831603171E08831671
:1029EA000313B800831603171D0883160313B700D1
:1029FA00831603171C0883160313B60083160317DE
:102A0A001B089B2A831203135E088039E3006308BC
:102A1A0083160313A000831203135E08E3006307FF
:102A2A00E400640883160313A20083120313DD1F54
:102A3A00212D831603132214831603132208031964
:102A4A00372D220A031D332D003083120313DE00B3
:102A5A000030DD000030DC000030DB008312DD17BF
:102A6A00DE01402D00308312DE000030DD00003030
:102A7A00DC000030DB0062088039E300630883165B
:102A8A000313A10021082006031D20178312031334
:102A9A006208E3006307E400640883160313A100D5
:102AAA0083120313E11F5C2D83160313211483166B
:102ABA00031321080319722D210A031D6E2D0030FC
:102ACA0083120313E2000030E1000030E00000301E
:102ADA00DF008312E117E2017B2D00308312E2004E
:102AEA000030E1000030E0000030DF0083160313FD
:102AFA00220821020318F52D201F8B2D8030831206
:102B0A000313E300630883160313A0062208831243
:102B1A000313E300630883160313A3002108831237
:102B2A000313E300630883160313A2002308831226
:102B3A000313E300630883160313A100831203132C
:102B4A005B08E300630883160313A30083120313CD
:102B5A005F08E3006308DB0083160313230883126C
:102B6A000313E3006308DF005C08E30063088316CD
:102B7A000313A300831203136008E3006308DC0055
:102B8A0083160313230883120313E3006308E00088
:102B9A005D08E300630883160313A300831203137B
:102BAA006108E3006308DD00831603132308831218
:102BBA000313E3006308E1005E08E3006308831679
:102BCA000313A300831203136208E3006308DE0001
:102BDA0083160313230883120313E3006308E20036
:102BEA0083160313A301220883120313E300E401EB
:102BFA00E309E409E30A0319E40A83160313210823
:102C0A00831203136307E50064080318640AE600E5
:102C1A006608803AFF0080307F02031D162E1A30A4
:102C2A006502031C652E831203135E085D045C04AF
:102C3A005B040319222E0130232E0030E3006308BF
:102C4A0083160313A300003083120313DE0000303F
:102C5A00DD000030DC000030DB008316031321089E
:102C6A0083120313E300630883160313A2006B2E77
:102C7A00231C4C2E230883120313E3000310630C56
:102C8A000138E400640883160313A3004E2E0310D0
:102C9A00A30C831203135B1C552E83160313A3176D
:102CAA0001308312E3005E0DDE0CDD0CDC0CDB0C64
:102CBA00E30B582E0130E300630883160313A207BF
:102CCA008316031321082202031C3D2E201BBC2E4F
:102CDA002208031D7B2E003083120313DE0000300E
:102CEA00DD000030DC000030DB00080083125F08E2
:102CFA00DB07600803110318013E031DDC076108A6
:102D0A0003110318013E031DDD07620803110318AE
:102D1A00013E031DDE075E1C7E2F83160313231C50
:102D2A00A22E0310A30C2308013883120313E30015
:102D3A00630883160313A300A42E0310A30C8312A3
:102D4A0003135B1CAB2E83160313A31701308312E4
:102D5A00E3005E0DDE0CDD0CDC0CDB0CE30BAE2EAF
:102D6A000130E300630883160313A2077E2F831240
:102D7A0003135E08803AFF006208803A7F02031D4F
:102D8A00D02E61085D02031DD02E60085C02031D6F
:102D9A00D02E5F085B020318392FFF30E300FF30A3
:102DAA00E400FF30E500FF30E6005F08E700600856
:102DBA00E8006108E9006208EA005B09EB005C09C7
:102DCA00EC005D09ED005E09EE00EB0A0319EC0A5E
:102DDA000319ED0A0319EE0A6B08E7076C080318D2
:102DEA006C0FF82EF92EE8076D0803186D0FFE2EEA
:102DFA00FF2EE9076E0803186E0AEA076708E30759
:102E0A0068080318680F0A2F0B2FE40769080318CC
:102E1A00690F102F112FE5076A0803186A0AE607D7
:102E2A006608DE006508DD006408DC006308DB0074
:102E3A008030E300630883160313A006A309A30ADC
:102E4A002308031D472F013083120313DB070030C9
:102E5A0003180130DC07003003180130DD070030A9
:102E6A0003180130DE07472F5F08DB026008031CE6
:102E7A00600FDC026108031C610FDD026208031C9B
:102E8A00620FDE0283125E085D045C045B04031DAC
:102E9A007B2F831603132308031D7B2F0030831215
:102EAA000313DE000030DD000030DC000030DB0000
:102EBA0008000130E3000310DB0DDC0DDD0DDE0D33
:102ECA00E30B602F83160313A31F6E2F83120313C2
:102EDA005B1483160313231C742F0314752F03101A
:102EEA00A30D220803197B2F0130A2028312DD1FD2
:102EFA005E2F83160313A101A31F8F2F23087F3987
:102F0A00031D8D2F831203135B1C8F2F831603134C
:102F1A00A101A10A8316031321080319CC2F01303A
:102F2A0083120313DB07003003180130DC0700307B
:102F3A0003180130DD07003003180130DE075E1C7C
:102F4A00CC2F5B08E3005C08E4005D08E5005E083E
:102F5A00E6000130E700660DE60CE50CE40CE30C34
:102F6A00E70BB02F6608DE006508DD006408DC00A8
:102F7A006308DB0083160313220A0319CC2F0130DE
:102F8A0083120313E300630883160313A20783164D
:102F9A000313220A031D2208031DE22F00308312A5
:102FAA000313DE000030DD000030DC000030DB00FF
:102FBA008316031322080319A001221CE82F831287
:102FCA000313DD17ED2F7F308312E3006308DD055D
:102FDA0083160313220883120313E3000310630CFE
:102FEA00E4006408DE0083160313A01F080083129E
:102FFA000313DE17080018308A000408840A8207BF
:10300A0000340034003480343F3400340034203437
:10301A00413400340034C8344234003400347A3441
:10302A004434003440341C34463400345034C334FD
:10303A004734003424347434493480349634183490
:10304A004B342034BC34BE344C3428346B346E34A4
:10305A004E34F934023415345034EC347834AD3407
:10306A006034CA34F2344934713400340034803460
:10307A003F34CD34CC34CC343D340A34D7342334C1
:10308A003C346F34123483343A341734B734D1347D
:10309A003834AC34C53427343734BD343734863405
:1030AA0035349534BF34D63433347734CC342B3476
:1030BA0032345F34703489343034FF34E634DB34EC
:1030CA002E340834E5343C341E3460344234A2349D
:1030DA000D3401340034003400340A34003400342E
:1030EA0000346434003400340034E83403340034E7
:1030FA0000341034273400340034A03486340134C8
:10310A000034403442340F340034803496349834D6
:10311A0000340034E134F53405340034CA349A34C6
:10312A003B345334653474343A3425342E343134D0
:10313A0066344334253463340034523454343A34D4
:10314A0025342E3431346634433425346334003420
:10315A0043346F346E34743472346F346C3465347F
:10316A0000344F344E34203400344F34463446341D
:02317A0000341F
:10375E00F40083120313071474080A168A152D2415
:10376E000800730872047104700403190800803095
:10377E00F3060800F40083120313071074080A16E8
:10378E008A152D248312031307140800F100F0018B
:10379E003A3071020318D92B30307102031CD92B29
:1037AE00F001F00A700C080083120313071507309E
:1037BE00F1007D30F000F00BE22BF10BE22B8312C7
:1037CE00031307110800F700F60183120313071401
:1037DE00F60176087707F500750884008317000850
:1037EE000319080076087707F5007508840083171B
:1037FE0000080A168A15AF230A168A150130F5003D
:10380E007508F607F02BF800F401F5017008F200C8
:10381E00F3017208F6007308F700781C1C2C76086A
:10382E00F4070318F50A7708F50701300310F60DB3
:10383E00F70DFF3E031D1D2C0310F80C7808031D19
:10384E00142C7508F1007408F0000800F3008312C0
:10385E0003130808F03988007308F20004300310CF
:10386E00F20CFF3E031D362C72080F390804880037
:10387E000A168A15DB230A168A1583120313080803
:10388E00F039880073080F39080488000A168A1563
:10389E00DB2308008312031307110710880103307E
:1038AE000A168A152D240A168A1503300A168A1549
:1038BE002D240A168A1503300A168A152D240A1687
:1038CE008A1502300A168A152D240A168A152830F2
:1038DE000A168A152D240A168A1506300A168A1516
:1038EE002D240A168A150C300A168A152D240A164E
:1038FE008A1501300A168A152D2483120313071414
:10390E000800F601F31F922CF209F309F20A0319CB
:10391E00F30AF601F60AF11F992CF009F109F00AE3
:10392E000319F10A700871040319C62CF501F50A82
:10393E00F11BAD2C01300310F00DF10DFF3E031DF8
:10394E00A22C0130F4007408F5079F2C7108730245
:10395E00031DB32C70087202031CBB2C7008F202FC
:10396E007108031CF303F30201300310F10CF00C89
:10397E00FF3E031DBC2C0130F502031DAD2C760855
:10398E000319CE2CF209F309F20A0319F30A73088C
:10399E00F1007208F00008007308720471047004DC
:1039AE000319162DF901F90AF31BEB2C0130F8005F
:1039BE000310F00DF10DF20DF30DF80BDF2C0130AD
:1039CE00F8007808F907DB2C73087702031DF92C31
:1039DE0072087602031DF92C71087502031DF92C6D
:1039EE0070087402031C092D7008F4027108031C80
:1039FE00710FF5027208031C720FF6027308031C96
:103A0E00730FF70201300310F30CF20CF10CF00CF3
:103A1E00FF3E031D0A2D0130F902031DEB2C770822
:103A2E00F3007608F2007508F1007408F000080043
:103A3E00803083160313A7062B0883120313DE00B0
:103A4E00831603132A0883120313DD008316031350
:103A5E00290883120313DC0083160313280883122C
:103A6E000313DB0083160313270883120313E200EC
:103A7E0083160313260883120313E1008316031320
:103A8E00250883120313E000831603132408831200
:103A9E000313DF000A168A110725831203135E082B
:103AAE0083160313A700831203135D0883160313F3
:103ABE00A600831203135C0883160313A50083125A
:103ACE0003135B0883160313A40008008312031369
:103ADE00A101F81F792DF709F809F70A0319F80A59
:103AEE00A101A10AFA1F842DF909FA09F90A03198D
:103AFE00FA0A0130FB007B08A106A201A301770898
:103B0E0078040319BB2DA001A00AF81B9A2D0130D1
:103B1E000310F70DF80DFF3E031D8F2D0130FB0036
:103B2E007B08A0078C2D01300310A20DA30DFF3EC4
:103B3E00031D9B2D78087A02031DA72D77087902A5
:103B4E00031CB02D7708F9027808031CFA03FA0259
:103B5E00221401300310F80CF70CFF3E031DB12D9B
:103B6E000130A002031D9A2D21080319C32DA209AD
:103B7E00A309A20A0319A30A2308F8002208F700D2
:103B8E0008000030FC000030FB000030FA0000306E
:103B9E00F900730872047104700403191D2EFD01DF
:103BAE00FD0AF31BE82D0130F8000310F00DF10DA6
:103BBE00F20DF30DF80BDC2D0130F8007808FD073F
:103BCE00D82D0130F8000310F90DFA0DFB0DFC0D88
:103BDE00F80BEA2D73087702031DFF2D720876028B
:103BEE00031DFF2D71087502031DFF2D7008740251
:103BFE00031C102E7008F4027108031C710FF502DD
:103C0E007208031C720FF6027308031C730FF7027F
:103C1E00791401300310F30CF20CF10CF00CFF3E92
:103C2E00031D112E0130FD02031DE82D7C08F3004B
:103C3E007B08F2007A08F1007908F0000800831280
:103C4E0003135308D7005408D8005508D900560856
:103C5E00DA000310590D5A0DDB005B08DD005D081C
:103C6E00031D422E0030D6000030D5000030D400A7
:103C7E000030D30008005308D7005408D800550868
:103C8E00D9005608DA001F300310DA0CD90CD80C04
:103C9E00D70CFF3E031D4B2E5708DB005B08DC00E4
:103CAE00D517FF30D305FF30D405FF30D5050030D2
:103CBE00D6059630DD02DD1F822E5D08803A973ED6
:103CCE000318722E0030D6000030D5000030D4001C
:103CDE000030D300080001300310D60CD50CD40CE4
:103CEE00D30CFF3E031D732E0130D7005708DD079E
:103CFE0003199D2E722E20305D02031C9A2E003069
:103D0E00D6000030D5000030D4000030D3000800BB
:103D1E000130D7000310D30DD40DD50DD60DD70B12
:103D2E00912E0130DD025D08031D8F2E5C080319F4
:103D3E000800D309D409D509D609D30A0319D40A20
:103D4E000319D50A0319D60A080083120313A0001B
:103D5E002008031DF81FC32E7509A2007609A300C3
:103D6E007709A4007809A500A20A0319A30A03196A
:103D7E00A40A0319A50ACB2E7808A5007708A4007B
:103D8E007608A3007508A2007808770476047504F7
:103D9E00031DDA2E0030F8000030F7000030F60078
:103DAE000030F50008009630F9007908A100FE30C9
:103DBE00250503190B2F0130F9007908A1070130F1
:103DCE000310A50CA40CA30CA20CFF3E031DE72EA2
:103DDE00DE2E0130F9007908A1070130A20700306C
:103DEE0003180130A307003003180130A407003078
:103DFE0003180130A50701300310A50CA40CA30C69
:103E0E00A20CFF3E031D032FFF30250503191B2FA8
:103E1E00F02E0130A1020130F9000310A20DA30D06
:103E2E00A40DA50DF90B142FA41B212F0230210276
:103E3E000318102F21182B2FFF30A205FF30A305DA
:103E4E007F30A405FF30A5050310A10C2108F90051
:103E5E00FA01FB01FC0118300310F90DFA0DFB0DF0
:103E6E00FC0DFF3E031D332F7908A2047A08A3042C
:103E7E007B08A4047C08A5042008031DF81F482F06
:103E8E00A5172508F8002408F7002308F6002208D5
:103E9E00F50008000030831603132405AC00003033
:103EAE002505AD0080302605AE007F302705AF001A
:103EBE002F082E042D042C04031D6D2F0030A70097
:103ECE000030A6000030A5000030A4000030280508
:103EDE00AC0000302905AD0080302A05AE007F30E1
:103EEE002B05AF002F082E042D042C04031D872F45
:103EFE000030AB000030AA000030A9000030A8004E
:103F0E00A71FBA2F0030AC000030AD000030AE005D
:103F1E008030AF002409B0002509B1002609B20097
:103F2E002709B300B00A0319B10A0319B20A03191B
:103F3E00B30A3008AC0731080318310FA72FA82F8A
:103F4E00AD0732080318320FAD2FAE2FAE07330870
:103F5E000318330AAF072F08A7002E08A6002D0856
:103F6E00A5002C08A400AB1FED2F0030AC000030D4
:103F7E00AD000030AE008030AF002809B000290936
:103F8E00B1002A09B2002B09B300B00A0319B10A15
:103F9E000319B20A0319B30A3008AC073108031823
:103FAE00310FDA2FDB2FAD0732080318320FE02F57
:103FBE00E12FAE0733080318330AAF072F08AB0003
:103FCE002E08AA002D08A9002C08A8008030A706EC
:103FDE008030AB062B082702031D08002A08260294
:103FEE00031D080029082502031D080028082402C5
:023FFE000800B9
:02400E00D4E3F9
:00000001FF
